{
  "contractName": "Octopeth",
  "abi": [
    {
      "constant": false,
      "inputs": [],
      "name": "renounceOwnership",
      "outputs": [],
      "payable": false,
      "stateMutability": "nonpayable",
      "type": "function"
    },
    {
      "constant": true,
      "inputs": [],
      "name": "owner",
      "outputs": [
        {
          "name": "",
          "type": "address"
        }
      ],
      "payable": false,
      "stateMutability": "view",
      "type": "function"
    },
    {
      "constant": false,
      "inputs": [
        {
          "name": "_newOwner",
          "type": "address"
        }
      ],
      "name": "transferOwnership",
      "outputs": [],
      "payable": false,
      "stateMutability": "nonpayable",
      "type": "function"
    },
    {
      "anonymous": false,
      "inputs": [
        {
          "indexed": false,
          "name": "owner",
          "type": "address"
        },
        {
          "indexed": false,
          "name": "title",
          "type": "string"
        },
        {
          "indexed": false,
          "name": "url",
          "type": "string"
        },
        {
          "indexed": false,
          "name": "contact",
          "type": "string"
        },
        {
          "indexed": false,
          "name": "logo",
          "type": "string"
        },
        {
          "indexed": false,
          "name": "desc",
          "type": "string"
        },
        {
          "indexed": false,
          "name": "hash",
          "type": "bytes32"
        },
        {
          "indexed": false,
          "name": "cat",
          "type": "uint8"
        }
      ],
      "name": "Publish",
      "type": "event"
    },
    {
      "anonymous": false,
      "inputs": [
        {
          "indexed": false,
          "name": "owner",
          "type": "address"
        },
        {
          "indexed": false,
          "name": "title",
          "type": "string"
        },
        {
          "indexed": false,
          "name": "url",
          "type": "string"
        },
        {
          "indexed": false,
          "name": "contact",
          "type": "string"
        },
        {
          "indexed": false,
          "name": "logo",
          "type": "string"
        },
        {
          "indexed": false,
          "name": "desc",
          "type": "string"
        },
        {
          "indexed": false,
          "name": "hash",
          "type": "bytes32"
        },
        {
          "indexed": false,
          "name": "cat",
          "type": "uint8"
        }
      ],
      "name": "Review",
      "type": "event"
    },
    {
      "anonymous": false,
      "inputs": [
        {
          "indexed": true,
          "name": "title",
          "type": "string"
        }
      ],
      "name": "Remove",
      "type": "event"
    },
    {
      "anonymous": false,
      "inputs": [
        {
          "indexed": false,
          "name": "value",
          "type": "bool"
        }
      ],
      "name": "PreCensor",
      "type": "event"
    },
    {
      "anonymous": false,
      "inputs": [
        {
          "indexed": false,
          "name": "value",
          "type": "bytes"
        }
      ],
      "name": "Config",
      "type": "event"
    },
    {
      "anonymous": false,
      "inputs": [
        {
          "indexed": true,
          "name": "previousOwner",
          "type": "address"
        }
      ],
      "name": "OwnershipRenounced",
      "type": "event"
    },
    {
      "anonymous": false,
      "inputs": [
        {
          "indexed": true,
          "name": "previousOwner",
          "type": "address"
        },
        {
          "indexed": true,
          "name": "newOwner",
          "type": "address"
        }
      ],
      "name": "OwnershipTransferred",
      "type": "event"
    },
    {
      "constant": false,
      "inputs": [
        {
          "name": "title",
          "type": "string"
        },
        {
          "name": "url",
          "type": "string"
        },
        {
          "name": "contact",
          "type": "string"
        },
        {
          "name": "logo",
          "type": "string"
        },
        {
          "name": "desc",
          "type": "string"
        },
        {
          "name": "hash",
          "type": "bytes32"
        },
        {
          "name": "cat",
          "type": "uint8"
        }
      ],
      "name": "publish",
      "outputs": [],
      "payable": false,
      "stateMutability": "nonpayable",
      "type": "function"
    },
    {
      "constant": false,
      "inputs": [
        {
          "name": "title",
          "type": "string"
        },
        {
          "name": "value",
          "type": "bool"
        }
      ],
      "name": "review",
      "outputs": [],
      "payable": false,
      "stateMutability": "nonpayable",
      "type": "function"
    },
    {
      "constant": false,
      "inputs": [
        {
          "name": "title",
          "type": "string"
        }
      ],
      "name": "remove",
      "outputs": [],
      "payable": false,
      "stateMutability": "nonpayable",
      "type": "function"
    },
    {
      "constant": false,
      "inputs": [
        {
          "name": "value",
          "type": "bool"
        }
      ],
      "name": "preCensor",
      "outputs": [],
      "payable": false,
      "stateMutability": "nonpayable",
      "type": "function"
    },
    {
      "constant": false,
      "inputs": [
        {
          "name": "value",
          "type": "bytes"
        }
      ],
      "name": "updateConfig",
      "outputs": [],
      "payable": false,
      "stateMutability": "nonpayable",
      "type": "function"
    }
  ],
  "bytecode": "0x606060405260008054600160a060020a033316600160a060020a03199091161790556111b3806100306000396000f30060606040526004361061008d5763ffffffff7c010000000000000000000000000000000000000000000000000000000060003504166327b554758114610092578063715018a6146100e957806380599e4b146100fc5780638a7f800c1461014d5780638cc6acce146101655780638da5cb5b146101b657806395b99642146101e5578063f2fde38b14610348575b600080fd5b341561009d57600080fd5b6100e760046024813581810190830135806020601f820181900481020160405190810160405281815292919060208401838380828437509496505050509135151591506103679050565b005b34156100f457600080fd5b6100e7610768565b341561010757600080fd5b6100e760046024813581810190830135806020601f820181900481020160405190810160405281815292919060208401838380828437509496506107da95505050505050565b341561015857600080fd5b6100e76004351515610901565b341561017057600080fd5b6100e760046024813581810190830135806020601f8201819004810201604051908101604052818152929190602084018383808284375094965061098d95505050505050565b34156101c157600080fd5b6101c9610a57565b604051600160a060020a03909116815260200160405180910390f35b34156101f057600080fd5b6100e760046024813581810190830135806020601f8201819004810201604051908101604052818152929190602084018383808284378201915050505050509190803590602001908201803590602001908080601f01602080910402602001604051908101604052818152929190602084018383808284378201915050505050509190803590602001908201803590602001908080601f01602080910402602001604051908101604052818152929190602084018383808284378201915050505050509190803590602001908201803590602001908080601f01602080910402602001604051908101604052818152929190602084018383808284378201915050505050509190803590602001908201803590602001908080601f016020809104026020016040519081016040528181529291906020840183838082843750949650508435946020013560ff169350610a6692505050565b341561035357600080fd5b6100e7600160a060020a0360043516610fc8565b6000805433600160a060020a0390811691161461038357600080fd5b6002836040518082805190602001908083835b602083106103b55780518252601f199092019160209182019101610396565b6001836020036101000a03801982511681845116808217855250505050505090500191505090815260200160405180910390209050816002846040518082805190602001908083835b6020831061041d5780518252601f1990920191602091820191016103fe565b6001836020036101000a038019825116818451168082178552505050505050905001915050908152602001604051908190039020600790810180549215156101000261ff00199093169290921790915581546006830154918301547fc78d767b2659f9b9571d19a79f53b1df43d1f904cd94fce66d3bbe0245ebc2f092600160a060020a03909216916001850191600286019160058701916003880191600489019160ff16604051600160a060020a038916815260c081018390526020810160408201606083016080840160a0850160e086018760098111156104fc57fe5b60ff1681526020878203810187528e54600260018216156101000260001901909116049082018190526040909101908e90801561057a5780601f1061054f5761010080835404028352916020019161057a565b820191906000526020600020905b81548152906001019060200180831161055d57829003601f168201915b505086810385528c54600260001961010060018416150201909116048082526020909101908d9080156105ee5780601f106105c3576101008083540402835291602001916105ee565b820191906000526020600020905b8154815290600101906020018083116105d157829003601f168201915b505086810384528b54600260001961010060018416150201909116048082526020909101908c9080156106625780601f1061063757610100808354040283529160200191610662565b820191906000526020600020905b81548152906001019060200180831161064557829003601f168201915b505086810383528a54600260001961010060018416150201909116048082526020909101908b9080156106d65780601f106106ab576101008083540402835291602001916106d6565b820191906000526020600020905b8154815290600101906020018083116106b957829003601f168201915b505086810382528954600260001961010060018416150201909116048082526020909101908a90801561074a5780601f1061071f5761010080835404028352916020019161074a565b820191906000526020600020905b81548152906001019060200180831161072d57829003601f168201915b50509d505050505050505050505050505060405180910390a1505050565b60005433600160a060020a0390811691161461078357600080fd5b600054600160a060020a03167ff8df31144d9c2f0f6b59d69b8b98abd5459d07f2742c4df920b25aae33c6482060405160405180910390a26000805473ffffffffffffffffffffffffffffffffffffffff19169055565b60005433600160a060020a039081169116146107f557600080fd5b60006002826040518082805190602001908083835b602083106108295780518252601f19909201916020918201910161080a565b6001836020036101000a03801982511681845116808217855250505050505090500191505090815260200160405190819003902060070180549115156101000261ff0019909216919091179055806040518082805190602001908083835b602083106108a65780518252601f199092019160209182019101610887565b6001836020036101000a038019825116818451161790925250505091909101925060409150505180910390207f834a2d47e948021d7136fb7275b3f1e1feae6333c0d683e8c13f901667defd8c60405160405180910390a250565b60005433600160a060020a0390811691161461091c57600080fd5b6000805474ff0000000000000000000000000000000000000000191674010000000000000000000000000000000000000000831515021790557f9f90b16ecbeaa03697f7ad37bc569e43325c68bc6942130f1153018f17a7f35e81604051901515815260200160405180910390a150565b60005433600160a060020a039081169116146109a857600080fd5b60018180516109bb92916020019061106f565b507ffa604b9f72cfe31dc76d72c3ca4f78daeb444286f7b9e1db3eeda406629fabcd8160405160208082528190810183818151815260200191508051906020019080838360005b83811015610a1a578082015183820152602001610a02565b50505050905090810190601f168015610a475780820380516001836020036101000a031916815260200191505b509250505060405180910390a150565b600054600160a060020a031681565b610a6e6110ed565b60006002896040518082805190602001908083835b60208310610aa25780518252601f199092019160209182019101610a83565b6001836020036101000a03801982511681845116808217855250505050505090500191505090815260200160405190819003902054600160a060020a03161480610b63575033600160a060020a03166002896040518082805190602001908083835b60208310610b235780518252601f199092019160209182019101610b04565b6001836020036101000a03801982511681845116808217855250505050505090500191505090815260200160405190819003902054600160a060020a0316145b1515610b6e57600080fd5b6101206040519081016040528033600160a060020a0316815260200189815260200188815260200186815260200185815260200187815260200184600019168152602001836009811115610bbe57fe5b815260005474010000000000000000000000000000000000000000900460ff16156020909101529050806002896040518082805190602001908083835b60208310610c1a5780518252601f199092019160209182019101610bfb565b6001836020036101000a0380198251168184511680821785525050505050509050019150509081526020016040519081900390208151815473ffffffffffffffffffffffffffffffffffffffff1916600160a060020a0391909116178155602082015181600101908051610c9292916020019061106f565b50604082015181600201908051610cad92916020019061106f565b50606082015181600301908051610cc892916020019061106f565b50608082015181600401908051610ce392916020019061106f565b5060a082015181600501908051610cfe92916020019061106f565b5060c0820151600682015560e082015160078201805460ff19166001836009811115610d2657fe5b0217905550610100820151600790910180549115156101000261ff0019909216919091179055507fded46f3ead3f0175fe7ac4a22b24eb9ee431c80b707289406016b30961a516323389898989898989604051600160a060020a038916815260c081018390526020810160408201606083016080840160a0850160e08601876009811115610db057fe5b60ff16815260200186810386528d818151815260200191508051906020019080838360005b83811015610ded578082015183820152602001610dd5565b50505050905090810190601f168015610e1a5780820380516001836020036101000a031916815260200191505b5086810385528c818151815260200191508051906020019080838360005b83811015610e50578082015183820152602001610e38565b50505050905090810190601f168015610e7d5780820380516001836020036101000a031916815260200191505b5086810384528b818151815260200191508051906020019080838360005b83811015610eb3578082015183820152602001610e9b565b50505050905090810190601f168015610ee05780820380516001836020036101000a031916815260200191505b5086810383528a818151815260200191508051906020019080838360005b83811015610f16578082015183820152602001610efe565b50505050905090810190601f168015610f435780820380516001836020036101000a031916815260200191505b50868103825289818151815260200191508051906020019080838360005b83811015610f79578082015183820152602001610f61565b50505050905090810190601f168015610fa65780820380516001836020036101000a031916815260200191505b509d505050505050505050505050505060405180910390a15050505050505050565b60005433600160a060020a03908116911614610fe357600080fd5b610fec81610fef565b50565b600160a060020a038116151561100457600080fd5b600054600160a060020a0380831691167f8be0079c531659141344cd1fd0a4f28419497f9722a3daafe3b4186f6b6457e060405160405180910390a36000805473ffffffffffffffffffffffffffffffffffffffff1916600160a060020a0392909216919091179055565b828054600181600116156101000203166002900490600052602060002090601f016020900481019282601f106110b057805160ff19168380011785556110dd565b828001600101855582156110dd579182015b828111156110dd5782518255916020019190600101906110c2565b506110e9929150611158565b5090565b6101206040519081016040526000815260208101611109611175565b8152602001611116611175565b8152602001611123611175565b8152602001611130611175565b815260200161113d611175565b81526000602082018190526040820181905260609091015290565b61117291905b808211156110e9576000815560010161115e565b90565b602060405190810160405260008152905600a165627a7a72305820dc0360375caf59eb72315d7b4a335f03c96982bcfc65e65cb9514d33a2769af80029",
  "source": "pragma solidity ^0.4.21;\n\nimport \"./Ownable.sol\";\n\ncontract Octopeth is Ownable {\n\n  bool preCensorship;\n  bytes config;\n\n  struct dApp {\n    address owner;\n    string title;\n    string url;\n    string logo;\n    string desc;\n    string contact;\n    bytes32 hash;\n    categories cat;\n    bool approved;\n  }\n\n  enum categories {OTHER, GAMING, ENTERTAINMENT, FINANCE, SOCIAL, EXCHANGE, GAMBLING, TOKENS, SHARING, GOVERNANCE}\n\n  event Publish(address owner, string title, string url, string contact, string logo, string desc, bytes32 hash, categories cat);\n  event Review(address owner, string title, string url, string contact, string logo, string desc, bytes32 hash, categories cat);\n  event Remove(string indexed title);\n  event PreCensor(bool value);\n  event Config(bytes value);\n\n  mapping (string => dApp) dApps;\n\n  function publish(string title, string url, string contact, string logo, string desc, bytes32 hash, categories cat) public {\n    require(dApps[title].owner == address(0) || dApps[title].owner == msg.sender);\n    dApp memory newdApp = dApp(msg.sender, title, url, logo, desc, contact, hash, cat, !(preCensorship));\n    dApps[title] = newdApp;\n    emit Publish(msg.sender, title, url, contact, logo, desc, hash, cat);\n  }\n\n  function review(string title, bool value) public onlyOwner {\n    dApp storage thisdApp = dApps[title];\n    dApps[title].approved = value;\n    emit Review(thisdApp.owner, thisdApp.title, thisdApp.url, thisdApp.contact, thisdApp.logo, thisdApp.desc, thisdApp.hash, thisdApp.cat);\n  }\n\n  function remove(string title) public onlyOwner {\n    dApps[title].approved = false;\n    emit Remove(title);\n  }\n\n  function preCensor(bool value) public onlyOwner {\n    preCensorship = value;\n    emit PreCensor(value);\n  }\n\n  function updateConfig(bytes value) public onlyOwner {\n    config = value;\n    emit Config(value);\n  }\n}\n",
  "sourcePath": "/home/nour/Documents/Lamarkaz/octopeth/contracts/contracts/Octopeth.sol",
  "compiler": {
    "name": "solc",
    "version": "0.4.21+commit.dfe3193c.Emscripten.clang"
  },
  "schemaVersion": "2.0.0",
  "updatedAt": "2018-07-23T04:36:04.892Z"
}