{
  "contractName": "Octopeth",
  "abi": [
    {
      "constant": false,
      "inputs": [],
      "name": "renounceOwnership",
      "outputs": [],
      "payable": false,
      "stateMutability": "nonpayable",
      "type": "function"
    },
    {
      "constant": true,
      "inputs": [],
      "name": "owner",
      "outputs": [
        {
          "name": "",
          "type": "address"
        }
      ],
      "payable": false,
      "stateMutability": "view",
      "type": "function"
    },
    {
      "constant": false,
      "inputs": [
        {
          "name": "_newOwner",
          "type": "address"
        }
      ],
      "name": "transferOwnership",
      "outputs": [],
      "payable": false,
      "stateMutability": "nonpayable",
      "type": "function"
    },
    {
      "anonymous": false,
      "inputs": [
        {
          "indexed": false,
          "name": "owner",
          "type": "address"
        },
        {
          "indexed": false,
          "name": "title",
          "type": "string"
        },
        {
          "indexed": false,
          "name": "url",
          "type": "string"
        },
        {
          "indexed": false,
          "name": "contact",
          "type": "string"
        },
        {
          "indexed": false,
          "name": "logo",
          "type": "string"
        },
        {
          "indexed": false,
          "name": "desc",
          "type": "string"
        },
        {
          "indexed": false,
          "name": "hash",
          "type": "bytes32"
        },
        {
          "indexed": false,
          "name": "cat",
          "type": "uint8"
        }
      ],
      "name": "Publish",
      "type": "event"
    },
    {
      "anonymous": false,
      "inputs": [
        {
          "indexed": false,
          "name": "owner",
          "type": "address"
        },
        {
          "indexed": false,
          "name": "title",
          "type": "string"
        },
        {
          "indexed": false,
          "name": "url",
          "type": "string"
        },
        {
          "indexed": false,
          "name": "contact",
          "type": "string"
        },
        {
          "indexed": false,
          "name": "logo",
          "type": "string"
        },
        {
          "indexed": false,
          "name": "desc",
          "type": "string"
        },
        {
          "indexed": false,
          "name": "hash",
          "type": "bytes32"
        },
        {
          "indexed": false,
          "name": "cat",
          "type": "uint8"
        }
      ],
      "name": "Review",
      "type": "event"
    },
    {
      "anonymous": false,
      "inputs": [
        {
          "indexed": true,
          "name": "title",
          "type": "string"
        }
      ],
      "name": "Remove",
      "type": "event"
    },
    {
      "anonymous": false,
      "inputs": [
        {
          "indexed": false,
          "name": "value",
          "type": "bool"
        }
      ],
      "name": "PreCensor",
      "type": "event"
    },
    {
      "anonymous": false,
      "inputs": [
        {
          "indexed": false,
          "name": "value",
          "type": "bytes"
        }
      ],
      "name": "Config",
      "type": "event"
    },
    {
      "anonymous": false,
      "inputs": [
        {
          "indexed": true,
          "name": "previousOwner",
          "type": "address"
        }
      ],
      "name": "OwnershipRenounced",
      "type": "event"
    },
    {
      "anonymous": false,
      "inputs": [
        {
          "indexed": true,
          "name": "previousOwner",
          "type": "address"
        },
        {
          "indexed": true,
          "name": "newOwner",
          "type": "address"
        }
      ],
      "name": "OwnershipTransferred",
      "type": "event"
    },
    {
      "constant": false,
      "inputs": [
        {
          "name": "title",
          "type": "string"
        },
        {
          "name": "url",
          "type": "string"
        },
        {
          "name": "contact",
          "type": "string"
        },
        {
          "name": "logo",
          "type": "string"
        },
        {
          "name": "desc",
          "type": "string"
        },
        {
          "name": "hash",
          "type": "bytes32"
        },
        {
          "name": "cat",
          "type": "uint8"
        }
      ],
      "name": "publish",
      "outputs": [],
      "payable": false,
      "stateMutability": "nonpayable",
      "type": "function"
    },
    {
      "constant": false,
      "inputs": [
        {
          "name": "title",
          "type": "string"
        },
        {
          "name": "value",
          "type": "bool"
        }
      ],
      "name": "review",
      "outputs": [],
      "payable": false,
      "stateMutability": "nonpayable",
      "type": "function"
    },
    {
      "constant": false,
      "inputs": [
        {
          "name": "title",
          "type": "string"
        }
      ],
      "name": "remove",
      "outputs": [],
      "payable": false,
      "stateMutability": "nonpayable",
      "type": "function"
    },
    {
      "constant": false,
      "inputs": [
        {
          "name": "value",
          "type": "bool"
        }
      ],
      "name": "preCensor",
      "outputs": [],
      "payable": false,
      "stateMutability": "nonpayable",
      "type": "function"
    },
    {
      "constant": false,
      "inputs": [
        {
          "name": "value",
          "type": "bytes"
        }
      ],
      "name": "updateConfig",
      "outputs": [],
      "payable": false,
      "stateMutability": "nonpayable",
      "type": "function"
    }
  ],
  "bytecode": "0x6060604052336000806101000a81548173ffffffffffffffffffffffffffffffffffffffff021916908373ffffffffffffffffffffffffffffffffffffffff1602179055506116f1806100536000396000f30060606040526004361061008e576000357c0100000000000000000000000000000000000000000000000000000000900463ffffffff16806327b5547514610093578063715018a6146100fb57806380599e4b146101105780638a7f800c1461016d5780638cc6acce146101925780638da5cb5b146101ef57806395b9964214610244578063f2fde38b146103c6575b600080fd5b341561009e57600080fd5b6100f9600480803590602001908201803590602001908080601f0160208091040260200160405190810160405280939291908181526020018383808284378201915050505050509190803515159060200190919050506103ff565b005b341561010657600080fd5b61010e6108d7565b005b341561011b57600080fd5b61016b600480803590602001908201803590602001908080601f016020809104026020016040519081016040528093929190818152602001838380828437820191505050505050919050506109d9565b005b341561017857600080fd5b61019060048080351515906020019091905050610b4d565b005b341561019d57600080fd5b6101ed600480803590602001908201803590602001908080601f01602080910402602001604051908101604052809392919081815260200183838082843782019150505050505091905050610c00565b005b34156101fa57600080fd5b610202610d11565b604051808273ffffffffffffffffffffffffffffffffffffffff1673ffffffffffffffffffffffffffffffffffffffff16815260200191505060405180910390f35b341561024f57600080fd5b6103c4600480803590602001908201803590602001908080601f0160208091040260200160405190810160405280939291908181526020018383808284378201915050505050509190803590602001908201803590602001908080601f0160208091040260200160405190810160405280939291908181526020018383808284378201915050505050509190803590602001908201803590602001908080601f0160208091040260200160405190810160405280939291908181526020018383808284378201915050505050509190803590602001908201803590602001908080601f0160208091040260200160405190810160405280939291908181526020018383808284378201915050505050509190803590602001908201803590602001908080601f016020809104026020016040519081016040528093929190818152602001838380828437820191505050505050919080356000191690602001909190803560ff16906020019091905050610d36565b005b34156103d157600080fd5b6103fd600480803573ffffffffffffffffffffffffffffffffffffffff1690602001909190505061139a565b005b60008060009054906101000a900473ffffffffffffffffffffffffffffffffffffffff1673ffffffffffffffffffffffffffffffffffffffff163373ffffffffffffffffffffffffffffffffffffffff1614151561045c57600080fd5b6002836040518082805190602001908083835b602083101515610494578051825260208201915060208101905060208303925061046f565b6001836020036101000a03801982511681845116808217855250505050505090500191505090815260200160405180910390209050816002846040518082805190602001908083835b60208310151561050257805182526020820191506020810190506020830392506104dd565b6001836020036101000a038019825116818451168082178552505050505050905001915050908152602001604051809103902060070160016101000a81548160ff0219169083151502179055507fc78d767b2659f9b9571d19a79f53b1df43d1f904cd94fce66d3bbe0245ebc2f08160000160009054906101000a900473ffffffffffffffffffffffffffffffffffffffff16826001018360020184600501856003018660040187600601548860070160009054906101000a900460ff16604051808973ffffffffffffffffffffffffffffffffffffffff1673ffffffffffffffffffffffffffffffffffffffff1681526020018060200180602001806020018060200180602001886000191660001916815260200187600981111561062457fe5b60ff16815260200186810386528d8181546001816001161561010002031660029004815260200191508054600181600116156101000203166002900480156106ad5780601f10610682576101008083540402835291602001916106ad565b820191906000526020600020905b81548152906001019060200180831161069057829003601f168201915b505086810385528c8181546001816001161561010002031660029004815260200191508054600181600116156101000203166002900480156107305780601f1061070557610100808354040283529160200191610730565b820191906000526020600020905b81548152906001019060200180831161071357829003601f168201915b505086810384528b8181546001816001161561010002031660029004815260200191508054600181600116156101000203166002900480156107b35780601f10610788576101008083540402835291602001916107b3565b820191906000526020600020905b81548152906001019060200180831161079657829003601f168201915b505086810383528a8181546001816001161561010002031660029004815260200191508054600181600116156101000203166002900480156108365780601f1061080b57610100808354040283529160200191610836565b820191906000526020600020905b81548152906001019060200180831161081957829003601f168201915b50508681038252898181546001816001161561010002031660029004815260200191508054600181600116156101000203166002900480156108b95780601f1061088e576101008083540402835291602001916108b9565b820191906000526020600020905b81548152906001019060200180831161089c57829003601f168201915b50509d505050505050505050505050505060405180910390a1505050565b6000809054906101000a900473ffffffffffffffffffffffffffffffffffffffff1673ffffffffffffffffffffffffffffffffffffffff163373ffffffffffffffffffffffffffffffffffffffff1614151561093257600080fd5b6000809054906101000a900473ffffffffffffffffffffffffffffffffffffffff1673ffffffffffffffffffffffffffffffffffffffff167ff8df31144d9c2f0f6b59d69b8b98abd5459d07f2742c4df920b25aae33c6482060405160405180910390a260008060006101000a81548173ffffffffffffffffffffffffffffffffffffffff021916908373ffffffffffffffffffffffffffffffffffffffff160217905550565b6000809054906101000a900473ffffffffffffffffffffffffffffffffffffffff1673ffffffffffffffffffffffffffffffffffffffff163373ffffffffffffffffffffffffffffffffffffffff16141515610a3457600080fd5b60006002826040518082805190602001908083835b602083101515610a6e5780518252602082019150602081019050602083039250610a49565b6001836020036101000a038019825116818451168082178552505050505050905001915050908152602001604051809103902060070160016101000a81548160ff021916908315150217905550806040518082805190602001908083835b602083101515610af15780518252602082019150602081019050602083039250610acc565b6001836020036101000a03801982511681845116808217855250505050505090500191505060405180910390207f834a2d47e948021d7136fb7275b3f1e1feae6333c0d683e8c13f901667defd8c60405160405180910390a250565b6000809054906101000a900473ffffffffffffffffffffffffffffffffffffffff1673ffffffffffffffffffffffffffffffffffffffff163373ffffffffffffffffffffffffffffffffffffffff16141515610ba857600080fd5b80600060146101000a81548160ff0219169083151502179055507f9f90b16ecbeaa03697f7ad37bc569e43325c68bc6942130f1153018f17a7f35e81604051808215151515815260200191505060405180910390a150565b6000809054906101000a900473ffffffffffffffffffffffffffffffffffffffff1673ffffffffffffffffffffffffffffffffffffffff163373ffffffffffffffffffffffffffffffffffffffff16141515610c5b57600080fd5b8060019080519060200190610c719291906114fb565b507ffa604b9f72cfe31dc76d72c3ca4f78daeb444286f7b9e1db3eeda406629fabcd816040518080602001828103825283818151815260200191508051906020019080838360005b83811015610cd4578082015181840152602081019050610cb9565b50505050905090810190601f168015610d015780820380516001836020036101000a031916815260200191505b509250505060405180910390a150565b6000809054906101000a900473ffffffffffffffffffffffffffffffffffffffff1681565b610d3e61157b565b600073ffffffffffffffffffffffffffffffffffffffff166002896040518082805190602001908083835b602083101515610d8e5780518252602082019150602081019050602083039250610d69565b6001836020036101000a038019825116818451168082178552505050505050905001915050908152602001604051809103902060000160009054906101000a900473ffffffffffffffffffffffffffffffffffffffff1673ffffffffffffffffffffffffffffffffffffffff161480610ec057503373ffffffffffffffffffffffffffffffffffffffff166002896040518082805190602001908083835b602083101515610e515780518252602082019150602081019050602083039250610e2c565b6001836020036101000a038019825116818451168082178552505050505050905001915050908152602001604051809103902060000160009054906101000a900473ffffffffffffffffffffffffffffffffffffffff1673ffffffffffffffffffffffffffffffffffffffff16145b1515610ecb57600080fd5b610120604051908101604052803373ffffffffffffffffffffffffffffffffffffffff16815260200189815260200188815260200186815260200185815260200187815260200184600019168152602001836009811115610f2857fe5b8152602001600060149054906101000a900460ff161515158152509050806002896040518082805190602001908083835b602083101515610f7e5780518252602082019150602081019050602083039250610f59565b6001836020036101000a038019825116818451168082178552505050505050905001915050908152602001604051809103902060008201518160000160006101000a81548173ffffffffffffffffffffffffffffffffffffffff021916908373ffffffffffffffffffffffffffffffffffffffff160217905550602082015181600101908051906020019061101492919061160c565b50604082015181600201908051906020019061103192919061160c565b50606082015181600301908051906020019061104e92919061160c565b50608082015181600401908051906020019061106b92919061160c565b5060a082015181600501908051906020019061108892919061160c565b5060c0820151816006019060001916905560e08201518160070160006101000a81548160ff021916908360098111156110bd57fe5b02179055506101008201518160070160016101000a81548160ff0219169083151502179055509050507fded46f3ead3f0175fe7ac4a22b24eb9ee431c80b707289406016b30961a516323389898989898989604051808973ffffffffffffffffffffffffffffffffffffffff1673ffffffffffffffffffffffffffffffffffffffff1681526020018060200180602001806020018060200180602001886000191660001916815260200187600981111561117357fe5b60ff16815260200186810386528d818151815260200191508051906020019080838360005b838110156111b3578082015181840152602081019050611198565b50505050905090810190601f1680156111e05780820380516001836020036101000a031916815260200191505b5086810385528c818151815260200191508051906020019080838360005b838110156112195780820151818401526020810190506111fe565b50505050905090810190601f1680156112465780820380516001836020036101000a031916815260200191505b5086810384528b818151815260200191508051906020019080838360005b8381101561127f578082015181840152602081019050611264565b50505050905090810190601f1680156112ac5780820380516001836020036101000a031916815260200191505b5086810383528a818151815260200191508051906020019080838360005b838110156112e55780820151818401526020810190506112ca565b50505050905090810190601f1680156113125780820380516001836020036101000a031916815260200191505b50868103825289818151815260200191508051906020019080838360005b8381101561134b578082015181840152602081019050611330565b50505050905090810190601f1680156113785780820380516001836020036101000a031916815260200191505b509d505050505050505050505050505060405180910390a15050505050505050565b6000809054906101000a900473ffffffffffffffffffffffffffffffffffffffff1673ffffffffffffffffffffffffffffffffffffffff163373ffffffffffffffffffffffffffffffffffffffff161415156113f557600080fd5b6113fe81611401565b50565b600073ffffffffffffffffffffffffffffffffffffffff168173ffffffffffffffffffffffffffffffffffffffff161415151561143d57600080fd5b8073ffffffffffffffffffffffffffffffffffffffff166000809054906101000a900473ffffffffffffffffffffffffffffffffffffffff1673ffffffffffffffffffffffffffffffffffffffff167f8be0079c531659141344cd1fd0a4f28419497f9722a3daafe3b4186f6b6457e060405160405180910390a3806000806101000a81548173ffffffffffffffffffffffffffffffffffffffff021916908373ffffffffffffffffffffffffffffffffffffffff16021790555050565b828054600181600116156101000203166002900490600052602060002090601f016020900481019282601f1061153c57805160ff191683800117855561156a565b8280016001018555821561156a579182015b8281111561156957825182559160200191906001019061154e565b5b509050611577919061168c565b5090565b61012060405190810160405280600073ffffffffffffffffffffffffffffffffffffffff1681526020016115ad6116b1565b81526020016115ba6116b1565b81526020016115c76116b1565b81526020016115d46116b1565b81526020016115e16116b1565b815260200160008019168152602001600060098111156115fd57fe5b81526020016000151581525090565b828054600181600116156101000203166002900490600052602060002090601f016020900481019282601f1061164d57805160ff191683800117855561167b565b8280016001018555821561167b579182015b8281111561167a57825182559160200191906001019061165f565b5b509050611688919061168c565b5090565b6116ae91905b808211156116aa576000816000905550600101611692565b5090565b90565b6020604051908101604052806000815250905600a165627a7a72305820fc8533c96b47d4202eddb627e93fbc0e3b7d2116671ebdbb4c7015c07f4f55460029",
  "source": "pragma solidity ^0.4.21;\n\nimport \"./Ownable.sol\";\n\ncontract Octopeth is Ownable {\n\n  bool preCensorship;\n  bytes config;\n\n  struct dApp {\n    address owner;\n    string title;\n    string url;\n    string logo;\n    string desc;\n    string contact;\n    bytes32 hash;\n    categories cat;\n    bool approved;\n  }\n\n  enum categories {OTHER, GAMING, ENTERTAINMENT, FINANCE, SOCIAL, EXCHANGE, GAMBLING, TOKENS, SHARING, GOVERNANCE}\n\n  event Publish(address owner, string title, string url, string contact, string logo, string desc, bytes32 hash, categories cat);\n  event Review(address owner, string title, string url, string contact, string logo, string desc, bytes32 hash, categories cat);\n  event Remove(string indexed title);\n  event PreCensor(bool value);\n  event Config(bytes value);\n\n  mapping (string => dApp) dApps;\n\n  function publish(string title, string url, string contact, string logo, string desc, bytes32 hash, categories cat) public {\n    require(dApps[title].owner == address(0) || dApps[title].owner == msg.sender);\n    dApp memory newdApp = dApp(msg.sender, title, url, logo, desc, contact, hash, cat, !(preCensorship));\n    dApps[title] = newdApp;\n    emit Publish(msg.sender, title, url, contact, logo, desc, hash, cat);\n  }\n\n  function review(string title, bool value) public onlyOwner {\n    dApp storage thisdApp = dApps[title];\n    dApps[title].approved = value;\n    emit Review(thisdApp.owner, thisdApp.title, thisdApp.url, thisdApp.contact, thisdApp.logo, thisdApp.desc, thisdApp.hash, thisdApp.cat);\n  }\n\n  function remove(string title) public onlyOwner {\n    dApps[title].approved = false;\n    emit Remove(title);\n  }\n\n  function preCensor(bool value) public onlyOwner {\n    preCensorship = value;\n    emit PreCensor(value);\n  }\n\n  function updateConfig(bytes value) public onlyOwner {\n    config = value;\n    emit Config(value);\n  }\n}\n",
  "sourcePath": "/home/nour/Documents/Lamarkaz/octopeth/contracts/contracts/Octopeth.sol",
  "compiler": {
    "name": "solc",
    "version": "0.4.21+commit.dfe3193c.Emscripten.clang"
  },
  "schemaVersion": "2.0.0",
  "updatedAt": "2018-06-17T20:57:53.031Z"
}