{
  "contractName": "Octopeth",
  "abi": [
    {
      "constant": true,
      "inputs": [],
      "name": "preCensorship",
      "outputs": [
        {
          "name": "",
          "type": "bool"
        }
      ],
      "payable": false,
      "stateMutability": "view",
      "type": "function"
    },
    {
      "constant": false,
      "inputs": [],
      "name": "renounceOwnership",
      "outputs": [],
      "payable": false,
      "stateMutability": "nonpayable",
      "type": "function"
    },
    {
      "constant": true,
      "inputs": [],
      "name": "config",
      "outputs": [
        {
          "name": "",
          "type": "bytes"
        }
      ],
      "payable": false,
      "stateMutability": "view",
      "type": "function"
    },
    {
      "constant": true,
      "inputs": [],
      "name": "owner",
      "outputs": [
        {
          "name": "",
          "type": "address"
        }
      ],
      "payable": false,
      "stateMutability": "view",
      "type": "function"
    },
    {
      "constant": false,
      "inputs": [
        {
          "name": "_newOwner",
          "type": "address"
        }
      ],
      "name": "transferOwnership",
      "outputs": [],
      "payable": false,
      "stateMutability": "nonpayable",
      "type": "function"
    },
    {
      "anonymous": false,
      "inputs": [
        {
          "indexed": false,
          "name": "owner",
          "type": "address"
        },
        {
          "indexed": false,
          "name": "title",
          "type": "string"
        },
        {
          "indexed": false,
          "name": "url",
          "type": "string"
        },
        {
          "indexed": false,
          "name": "contact",
          "type": "string"
        },
        {
          "indexed": false,
          "name": "logo",
          "type": "string"
        },
        {
          "indexed": false,
          "name": "desc",
          "type": "string"
        },
        {
          "indexed": false,
          "name": "hash",
          "type": "bytes32"
        },
        {
          "indexed": false,
          "name": "cat",
          "type": "uint8"
        }
      ],
      "name": "Publish",
      "type": "event"
    },
    {
      "anonymous": false,
      "inputs": [
        {
          "indexed": false,
          "name": "owner",
          "type": "address"
        },
        {
          "indexed": false,
          "name": "title",
          "type": "string"
        },
        {
          "indexed": false,
          "name": "url",
          "type": "string"
        },
        {
          "indexed": false,
          "name": "contact",
          "type": "string"
        },
        {
          "indexed": false,
          "name": "logo",
          "type": "string"
        },
        {
          "indexed": false,
          "name": "desc",
          "type": "string"
        },
        {
          "indexed": false,
          "name": "hash",
          "type": "bytes32"
        },
        {
          "indexed": false,
          "name": "cat",
          "type": "uint8"
        }
      ],
      "name": "Review",
      "type": "event"
    },
    {
      "anonymous": false,
      "inputs": [
        {
          "indexed": true,
          "name": "title",
          "type": "string"
        }
      ],
      "name": "Remove",
      "type": "event"
    },
    {
      "anonymous": false,
      "inputs": [
        {
          "indexed": false,
          "name": "value",
          "type": "bool"
        }
      ],
      "name": "PreCensor",
      "type": "event"
    },
    {
      "anonymous": false,
      "inputs": [
        {
          "indexed": false,
          "name": "value",
          "type": "bytes"
        }
      ],
      "name": "Config",
      "type": "event"
    },
    {
      "anonymous": false,
      "inputs": [
        {
          "indexed": true,
          "name": "previousOwner",
          "type": "address"
        }
      ],
      "name": "OwnershipRenounced",
      "type": "event"
    },
    {
      "anonymous": false,
      "inputs": [
        {
          "indexed": true,
          "name": "previousOwner",
          "type": "address"
        },
        {
          "indexed": true,
          "name": "newOwner",
          "type": "address"
        }
      ],
      "name": "OwnershipTransferred",
      "type": "event"
    },
    {
      "constant": false,
      "inputs": [
        {
          "name": "title",
          "type": "string"
        },
        {
          "name": "url",
          "type": "string"
        },
        {
          "name": "contact",
          "type": "string"
        },
        {
          "name": "logo",
          "type": "string"
        },
        {
          "name": "desc",
          "type": "string"
        },
        {
          "name": "hash",
          "type": "bytes32"
        },
        {
          "name": "cat",
          "type": "uint8"
        }
      ],
      "name": "publish",
      "outputs": [],
      "payable": false,
      "stateMutability": "nonpayable",
      "type": "function"
    },
    {
      "constant": false,
      "inputs": [
        {
          "name": "title",
          "type": "string"
        },
        {
          "name": "value",
          "type": "bool"
        }
      ],
      "name": "review",
      "outputs": [],
      "payable": false,
      "stateMutability": "nonpayable",
      "type": "function"
    },
    {
      "constant": false,
      "inputs": [
        {
          "name": "title",
          "type": "string"
        }
      ],
      "name": "remove",
      "outputs": [],
      "payable": false,
      "stateMutability": "nonpayable",
      "type": "function"
    },
    {
      "constant": false,
      "inputs": [
        {
          "name": "value",
          "type": "bool"
        }
      ],
      "name": "preCensor",
      "outputs": [],
      "payable": false,
      "stateMutability": "nonpayable",
      "type": "function"
    },
    {
      "constant": false,
      "inputs": [
        {
          "name": "value",
          "type": "bytes"
        }
      ],
      "name": "updateConfig",
      "outputs": [],
      "payable": false,
      "stateMutability": "nonpayable",
      "type": "function"
    }
  ],
  "bytecode": "0x608060405260008054600160a060020a031916331790556112f1806100256000396000f3006080604052600436106100a35763ffffffff7c010000000000000000000000000000000000000000000000000000000060003504166327b5547581146100a85780633b6df72214610107578063715018a61461013057806379502c551461014557806380599e4b146101cf5780638a7f800c146102285780638cc6acce146102425780638da5cb5b1461029b57806395b99642146102cc578063f2fde38b14610428575b600080fd5b3480156100b457600080fd5b506040805160206004803580820135601f8101849004840285018401909552848452610105943694929360249392840191908190840183828082843750949750505050913515159250610449915050565b005b34801561011357600080fd5b5061011c610838565b604080519115158252519081900360200190f35b34801561013c57600080fd5b50610105610859565b34801561015157600080fd5b5061015a6108c5565b6040805160208082528351818301528351919283929083019185019080838360005b8381101561019457818101518382015260200161017c565b50505050905090810190601f1680156101c15780820380516001836020036101000a031916815260200191505b509250505060405180910390f35b3480156101db57600080fd5b506040805160206004803580820135601f81018490048402850184019095528484526101059436949293602493928401919081908401838280828437509497506109529650505050505050565b34801561023457600080fd5b506101056004351515610a70565b34801561024e57600080fd5b506040805160206004803580820135601f8101849004840285018401909552848452610105943694929360249392840191908190840183828082843750949750610afc9650505050505050565b3480156102a757600080fd5b506102b0610bc3565b60408051600160a060020a039092168252519081900360200190f35b3480156102d857600080fd5b506040805160206004803580820135601f810184900484028501840190955284845261010594369492936024939284019190819084018382808284375050604080516020601f89358b018035918201839004830284018301909452808352979a99988101979196509182019450925082915084018382808284375050604080516020601f89358b018035918201839004830284018301909452808352979a99988101979196509182019450925082915084018382808284375050604080516020601f89358b018035918201839004830284018301909452808352979a99988101979196509182019450925082915084018382808284375050604080516020601f89358b018035918201839004830284018301909452808352979a999881019791965091820194509250829150840183828082843750949750508435955050505060209091013560ff169050610bd2565b34801561043457600080fd5b50610105600160a060020a0360043516611126565b60008054600160a060020a0316331461046157600080fd5b6002836040518082805190602001908083835b602083106104935780518252601f199092019160209182019101610474565b51815160209384036101000a600019018019909216911617905292019485525060405193849003810184208751909550869460029450889350918291908401908083835b602083106104f65780518252601f1990920191602091820191016104d7565b518151602093840361010090810a6000190180199093169290911691909117909152919093019586526040805196879003840187206007908101805461ff001916991515909302989098179091558754600689015497890154600160a060020a0390911680885260c088018990527fc78d767b2659f9b9571d19a79f53b1df43d1f904cd94fce66d3bbe0245ebc2f098909760018b01975060028b01965060058b019560038c01955060048c0194929360ff1692908201908201606083016080840160a0850160e086018760098111156105cc57fe5b60ff1681526020878203810187528e54600260018216156101000260001901909116049082018190526040909101908e90801561064a5780601f1061061f5761010080835404028352916020019161064a565b820191906000526020600020905b81548152906001019060200180831161062d57829003601f168201915b505086810385528c54600260001961010060018416150201909116048082526020909101908d9080156106be5780601f10610693576101008083540402835291602001916106be565b820191906000526020600020905b8154815290600101906020018083116106a157829003601f168201915b505086810384528b54600260001961010060018416150201909116048082526020909101908c9080156107325780601f1061070757610100808354040283529160200191610732565b820191906000526020600020905b81548152906001019060200180831161071557829003601f168201915b505086810383528a54600260001961010060018416150201909116048082526020909101908b9080156107a65780601f1061077b576101008083540402835291602001916107a6565b820191906000526020600020905b81548152906001019060200180831161078957829003601f168201915b505086810382528954600260001961010060018416150201909116048082526020909101908a90801561081a5780601f106107ef5761010080835404028352916020019161081a565b820191906000526020600020905b8154815290600101906020018083116107fd57829003601f168201915b50509d505050505050505050505050505060405180910390a1505050565b60005474010000000000000000000000000000000000000000900460ff1681565b600054600160a060020a0316331461087057600080fd5b60008054604051600160a060020a03909116917ff8df31144d9c2f0f6b59d69b8b98abd5459d07f2742c4df920b25aae33c6482091a26000805473ffffffffffffffffffffffffffffffffffffffff19169055565b60018054604080516020600284861615610100026000190190941693909304601f8101849004840282018401909252818152929183018282801561094a5780601f1061091f5761010080835404028352916020019161094a565b820191906000526020600020905b81548152906001019060200180831161092d57829003601f168201915b505050505081565b600054600160a060020a0316331461096957600080fd5b60006002826040518082805190602001908083835b6020831061099d5780518252601f19909201916020918201910161097e565b6001836020036101000a038019825116818451168082178552505050505050905001915050908152602001604051809103902060070160016101000a81548160ff021916908315150217905550806040518082805190602001908083835b60208310610a1a5780518252601f1990920191602091820191016109fb565b5181516020939093036101000a60001901801990911692169190911790526040519201829003822093507f834a2d47e948021d7136fb7275b3f1e1feae6333c0d683e8c13f901667defd8c92506000919050a250565b600054600160a060020a03163314610a8757600080fd5b6000805482151574010000000000000000000000000000000000000000810274ff0000000000000000000000000000000000000000199092169190911790915560408051918252517f9f90b16ecbeaa03697f7ad37bc569e43325c68bc6942130f1153018f17a7f35e9181900360200190a150565b600054600160a060020a03163314610b1357600080fd5b8051610b269060019060208401906111c6565b507ffa604b9f72cfe31dc76d72c3ca4f78daeb444286f7b9e1db3eeda406629fabcd816040518080602001828103825283818151815260200191508051906020019080838360005b83811015610b86578181015183820152602001610b6e565b50505050905090810190601f168015610bb35780820380516001836020036101000a031916815260200191505b509250505060405180910390a150565b600054600160a060020a031681565b610bda611244565b6000600160a060020a03166002896040518082805190602001908083835b60208310610c175780518252601f199092019160209182019101610bf8565b51815160209384036101000a6000190180199092169116179052920194855250604051938490030190922054600160a060020a0316929092149150819050610cd3575033600160a060020a03166002896040518082805190602001908083835b60208310610c965780518252601f199092019160209182019101610c77565b51815160209384036101000a6000190180199092169116179052920194855250604051938490030190922054600160a060020a0316929092149150505b1515610cde57600080fd5b6101206040519081016040528033600160a060020a0316815260200189815260200188815260200186815260200185815260200187815260200184600019168152602001836009811115610d2e57fe5b815260005474010000000000000000000000000000000000000000900460ff16156020918201526040518a5192935083926002928c929182918401908083835b60208310610d8d5780518252601f199092019160209182019101610d6e565b51815160209384036101000a60001901801990921691161790529201948552506040519384900381019093208451815473ffffffffffffffffffffffffffffffffffffffff1916600160a060020a039091161781558484015180519194610dfc945060018601935001906111c6565b5060408201518051610e189160028401916020909101906111c6565b5060608201518051610e349160038401916020909101906111c6565b5060808201518051610e509160048401916020909101906111c6565b5060a08201518051610e6c9160058401916020909101906111c6565b5060c0820151600682015560e082015160078201805460ff19166001836009811115610e9457fe5b021790555061010091820151600791909101805461ff001916911515909202179055604080513380825260c082018690527fded46f3ead3f0175fe7ac4a22b24eb9ee431c80b707289406016b30961a516329290918b918b918b918b918b918b918b9160208201908201606083016080840160a0850160e08601876009811115610f1a57fe5b60ff16815260200186810386528d818151815260200191508051906020019080838360005b83811015610f57578181015183820152602001610f3f565b50505050905090810190601f168015610f845780820380516001836020036101000a031916815260200191505b5086810385528c5181528c516020918201918e019080838360005b83811015610fb7578181015183820152602001610f9f565b50505050905090810190601f168015610fe45780820380516001836020036101000a031916815260200191505b5086810384528b5181528b516020918201918d019080838360005b83811015611017578181015183820152602001610fff565b50505050905090810190601f1680156110445780820380516001836020036101000a031916815260200191505b5086810383528a5181528a516020918201918c019080838360005b8381101561107757818101518382015260200161105f565b50505050905090810190601f1680156110a45780820380516001836020036101000a031916815260200191505b5086810382528951815289516020918201918b019080838360005b838110156110d75781810151838201526020016110bf565b50505050905090810190601f1680156111045780820380516001836020036101000a031916815260200191505b509d505050505050505050505050505060405180910390a15050505050505050565b600054600160a060020a0316331461113d57600080fd5b61114681611149565b50565b600160a060020a038116151561115e57600080fd5b60008054604051600160a060020a03808516939216917f8be0079c531659141344cd1fd0a4f28419497f9722a3daafe3b4186f6b6457e091a36000805473ffffffffffffffffffffffffffffffffffffffff1916600160a060020a0392909216919091179055565b828054600181600116156101000203166002900490600052602060002090601f016020900481019282601f1061120757805160ff1916838001178555611234565b82800160010185558215611234579182015b82811115611234578251825591602001919060010190611219565b506112409291506112a8565b5090565b610120604051908101604052806000600160a060020a031681526020016060815260200160608152602001606081526020016060815260200160608152602001600080191681526020016000600981111561129b57fe5b8152600060209091015290565b6112c291905b8082111561124057600081556001016112ae565b905600a165627a7a723058204308823ffa32dc6ab131d3670ab76728d0f4a1ea0658fce2ad8a650035b31f770029",
  "source": "pragma solidity ^0.4.21;\n\nimport \"./Ownable.sol\";\n\ncontract Octopeth is Ownable {\n\n  bool public preCensorship;\n  bytes public config;\n\n  struct dApp {\n    address owner;\n    string title;\n    string url;\n    string logo;\n    string desc;\n    string contact;\n    bytes32 hash;\n    categories cat;\n    bool approved;\n  }\n\n  enum categories {OTHER, GAMING, ENTERTAINMENT, FINANCE, SOCIAL, EXCHANGE, GAMBLING, TOKENS, SHARING, GOVERNANCE}\n\n  event Publish(address owner, string title, string url, string contact, string logo, string desc, bytes32 hash, categories cat);\n  event Review(address owner, string title, string url, string contact, string logo, string desc, bytes32 hash, categories cat);\n  event Remove(string indexed title);\n  event PreCensor(bool value);\n  event Config(bytes value);\n\n  mapping (string => dApp) dApps;\n\n  function publish(string title, string url, string contact, string logo, string desc, bytes32 hash, categories cat) public {\n    require(dApps[title].owner == address(0) || dApps[title].owner == msg.sender);\n    dApp memory newdApp = dApp(msg.sender, title, url, logo, desc, contact, hash, cat, !(preCensorship));\n    dApps[title] = newdApp;\n    emit Publish(msg.sender, title, url, contact, logo, desc, hash, cat);\n  }\n\n  function review(string title, bool value) public onlyOwner {\n    dApp storage thisdApp = dApps[title];\n    dApps[title].approved = value;\n    emit Review(thisdApp.owner, thisdApp.title, thisdApp.url, thisdApp.contact, thisdApp.logo, thisdApp.desc, thisdApp.hash, thisdApp.cat);\n  }\n\n  function remove(string title) public onlyOwner {\n    dApps[title].approved = false;\n    emit Remove(title);\n  }\n\n  function preCensor(bool value) public onlyOwner {\n    preCensorship = value;\n    emit PreCensor(value);\n  }\n\n  function updateConfig(bytes value) public onlyOwner {\n    config = value;\n    emit Config(value);\n  }\n}\n",
  "sourcePath": "/Users/elrakabawi/Desktop/gits/octopeth/contracts/contracts/Octopeth.sol",
  "compiler": {
    "name": "solc",
    "version": "0.4.24+commit.e67f0147.Emscripten.clang"
  },
  "schemaVersion": "2.0.1",
  "updatedAt": "2018-07-25T21:45:50.745Z"
}