{
  "contractName": "Octopeth",
  "abi": [
    {
      "constant": true,
      "inputs": [],
      "name": "preCensorship",
      "outputs": [
        {
          "name": "",
          "type": "bool"
        }
      ],
      "payable": false,
      "stateMutability": "view",
      "type": "function"
    },
    {
      "constant": false,
      "inputs": [],
      "name": "renounceOwnership",
      "outputs": [],
      "payable": false,
      "stateMutability": "nonpayable",
      "type": "function"
    },
    {
      "constant": true,
      "inputs": [],
      "name": "config",
      "outputs": [
        {
          "name": "",
          "type": "bytes"
        }
      ],
      "payable": false,
      "stateMutability": "view",
      "type": "function"
    },
    {
      "constant": true,
      "inputs": [],
      "name": "owner",
      "outputs": [
        {
          "name": "",
          "type": "address"
        }
      ],
      "payable": false,
      "stateMutability": "view",
      "type": "function"
    },
    {
      "constant": false,
      "inputs": [
        {
          "name": "_newOwner",
          "type": "address"
        }
      ],
      "name": "transferOwnership",
      "outputs": [],
      "payable": false,
      "stateMutability": "nonpayable",
      "type": "function"
    },
    {
      "anonymous": false,
      "inputs": [
        {
          "indexed": false,
          "name": "owner",
          "type": "address"
        },
        {
          "indexed": false,
          "name": "title",
          "type": "string"
        },
        {
          "indexed": false,
          "name": "url",
          "type": "string"
        },
        {
          "indexed": false,
          "name": "contact",
          "type": "string"
        },
        {
          "indexed": false,
          "name": "logo",
          "type": "string"
        },
        {
          "indexed": false,
          "name": "desc",
          "type": "string"
        },
        {
          "indexed": false,
          "name": "cat",
          "type": "uint8"
        }
      ],
      "name": "Publish",
      "type": "event"
    },
    {
      "anonymous": false,
      "inputs": [
        {
          "indexed": false,
          "name": "owner",
          "type": "address"
        },
        {
          "indexed": false,
          "name": "title",
          "type": "string"
        },
        {
          "indexed": false,
          "name": "url",
          "type": "string"
        },
        {
          "indexed": false,
          "name": "contact",
          "type": "string"
        },
        {
          "indexed": false,
          "name": "logo",
          "type": "string"
        },
        {
          "indexed": false,
          "name": "desc",
          "type": "string"
        },
        {
          "indexed": false,
          "name": "cat",
          "type": "uint8"
        }
      ],
      "name": "Review",
      "type": "event"
    },
    {
      "anonymous": false,
      "inputs": [
        {
          "indexed": true,
          "name": "title",
          "type": "string"
        }
      ],
      "name": "Remove",
      "type": "event"
    },
    {
      "anonymous": false,
      "inputs": [
        {
          "indexed": false,
          "name": "value",
          "type": "bool"
        }
      ],
      "name": "PreCensor",
      "type": "event"
    },
    {
      "anonymous": false,
      "inputs": [
        {
          "indexed": false,
          "name": "value",
          "type": "bytes"
        }
      ],
      "name": "Config",
      "type": "event"
    },
    {
      "anonymous": false,
      "inputs": [
        {
          "indexed": true,
          "name": "previousOwner",
          "type": "address"
        }
      ],
      "name": "OwnershipRenounced",
      "type": "event"
    },
    {
      "anonymous": false,
      "inputs": [
        {
          "indexed": true,
          "name": "previousOwner",
          "type": "address"
        },
        {
          "indexed": true,
          "name": "newOwner",
          "type": "address"
        }
      ],
      "name": "OwnershipTransferred",
      "type": "event"
    },
    {
      "constant": false,
      "inputs": [
        {
          "name": "title",
          "type": "string"
        },
        {
          "name": "url",
          "type": "string"
        },
        {
          "name": "contact",
          "type": "string"
        },
        {
          "name": "logo",
          "type": "string"
        },
        {
          "name": "desc",
          "type": "string"
        },
        {
          "name": "cat",
          "type": "uint8"
        }
      ],
      "name": "publish",
      "outputs": [],
      "payable": false,
      "stateMutability": "nonpayable",
      "type": "function"
    },
    {
      "constant": false,
      "inputs": [
        {
          "name": "title",
          "type": "string"
        },
        {
          "name": "value",
          "type": "bool"
        }
      ],
      "name": "review",
      "outputs": [],
      "payable": false,
      "stateMutability": "nonpayable",
      "type": "function"
    },
    {
      "constant": false,
      "inputs": [
        {
          "name": "title",
          "type": "string"
        }
      ],
      "name": "remove",
      "outputs": [],
      "payable": false,
      "stateMutability": "nonpayable",
      "type": "function"
    },
    {
      "constant": false,
      "inputs": [
        {
          "name": "value",
          "type": "bool"
        }
      ],
      "name": "preCensor",
      "outputs": [],
      "payable": false,
      "stateMutability": "nonpayable",
      "type": "function"
    },
    {
      "constant": false,
      "inputs": [
        {
          "name": "value",
          "type": "bytes"
        }
      ],
      "name": "updateConfig",
      "outputs": [],
      "payable": false,
      "stateMutability": "nonpayable",
      "type": "function"
    },
    {
      "constant": true,
      "inputs": [
        {
          "name": "apptitle",
          "type": "string"
        }
      ],
      "name": "getDApp",
      "outputs": [
        {
          "name": "title",
          "type": "string"
        },
        {
          "name": "url",
          "type": "string"
        },
        {
          "name": "contact",
          "type": "string"
        },
        {
          "name": "logo",
          "type": "string"
        },
        {
          "name": "desc",
          "type": "string"
        },
        {
          "name": "cat",
          "type": "uint8"
        }
      ],
      "payable": false,
      "stateMutability": "view",
      "type": "function"
    }
  ],
  "bytecode": "0x608060405260008054600160a060020a0319163317905561189e806100256000396000f3006080604052600436106100ae5763ffffffff7c010000000000000000000000000000000000000000000000000000000060003504166327b5547581146100b35780633ad8173a146101125780633b6df72214610268578063715018a61461029157806379502c55146102a657806380599e4b146103305780638a7f800c146103895780638cc6acce146103a35780638da5cb5b146103fc57806391b9b6401461042d578063f2fde38b146106ab575b600080fd5b3480156100bf57600080fd5b506040805160206004803580820135601f81018490048402850184019095528484526101109436949293602493928401919081908401838280828437509497505050509135151592506106cc915050565b005b34801561011e57600080fd5b506040805160206004803580820135601f810184900484028501840190955284845261011094369492936024939284019190819084018382808284375050604080516020601f89358b018035918201839004830284018301909452808352979a99988101979196509182019450925082915084018382808284375050604080516020601f89358b018035918201839004830284018301909452808352979a99988101979196509182019450925082915084018382808284375050604080516020601f89358b018035918201839004830284018301909452808352979a99988101979196509182019450925082915084018382808284375050604080516020601f89358b018035918201839004830284018301909452808352979a9998810197919650918201945092508291508401838280828437509497505050923560ff169350610a5892505050565b34801561027457600080fd5b5061027d610fc9565b604080519115158252519081900360200190f35b34801561029d57600080fd5b50610110610fea565b3480156102b257600080fd5b506102bb611056565b6040805160208082528351818301528351919283929083019185019080838360005b838110156102f55781810151838201526020016102dd565b50505050905090810190601f1680156103225780820380516001836020036101000a031916815260200191505b509250505060405180910390f35b34801561033c57600080fd5b506040805160206004803580820135601f81018490048402850184019095528484526101109436949293602493928401919081908401838280828437509497506110e39650505050505050565b34801561039557600080fd5b506101106004351515611213565b3480156103af57600080fd5b506040805160206004803580820135601f810184900484028501840190955284845261011094369492936024939284019190819084018382808284375094975061129f9650505050505050565b34801561040857600080fd5b50610411611366565b60408051600160a060020a039092168252519081900360200190f35b34801561043957600080fd5b506040805160206004803580820135601f81018490048402850184019095528484526104869436949293602493928401919081908401838280828437509497506113759650505050505050565b6040518080602001806020018060200180602001806020018760098111156104aa57fe5b60ff16815260200186810386528c818151815260200191508051906020019080838360005b838110156104e75781810151838201526020016104cf565b50505050905090810190601f1680156105145780820380516001836020036101000a031916815260200191505b5086810385528b5181528b516020918201918d019080838360005b8381101561054757818101518382015260200161052f565b50505050905090810190601f1680156105745780820380516001836020036101000a031916815260200191505b5086810384528a5181528a516020918201918c019080838360005b838110156105a757818101518382015260200161058f565b50505050905090810190601f1680156105d45780820380516001836020036101000a031916815260200191505b5086810383528951815289516020918201918b019080838360005b838110156106075781810151838201526020016105ef565b50505050905090810190601f1680156106345780820380516001836020036101000a031916815260200191505b5086810382528851815288516020918201918a019080838360005b8381101561066757818101518382015260200161064f565b50505050905090810190601f1680156106945780820380516001836020036101000a031916815260200191505b509b50505050505050505050505060405180910390f35b3480156106b757600080fd5b50610110600160a060020a03600435166116dd565b60008054600160a060020a031633146106e457600080fd5b60026000846040518082805190602001908083835b602083106107185780518252601f1990920191602091820191016106f9565b518151602093840361010090810a6000190180199093169290911691909117909152604080519390950183900390922087528681019790975294820160002060068101805461ff0019168a1515909702969096179586905580548351600160a060020a039091168082529198507f4efc11a85713008a07540c61a36a3c310d4c0135d5b3ebfc57acdc57c549233a97919660018a01965060028a01955060058a019460038b01945060048b019360ff90921692918201908201606083016080840160a0850160c086018760098111156107ed57fe5b60ff1681526020878203810187528d54600260018216156101000260001901909116049082018190526040909101908d90801561086b5780601f106108405761010080835404028352916020019161086b565b820191906000526020600020905b81548152906001019060200180831161084e57829003601f168201915b505086810385528b54600260001961010060018416150201909116048082526020909101908c9080156108df5780601f106108b4576101008083540402835291602001916108df565b820191906000526020600020905b8154815290600101906020018083116108c257829003601f168201915b505086810384528a54600260001961010060018416150201909116048082526020909101908b9080156109535780601f1061092857610100808354040283529160200191610953565b820191906000526020600020905b81548152906001019060200180831161093657829003601f168201915b505086810383528954600260001961010060018416150201909116048082526020909101908a9080156109c75780601f1061099c576101008083540402835291602001916109c7565b820191906000526020600020905b8154815290600101906020018083116109aa57829003601f168201915b5050868103825288546002600019610100600184161502019091160480825260209091019089908015610a3b5780601f10610a1057610100808354040283529160200191610a3b565b820191906000526020600020905b815481529060010190602001808311610a1e57829003601f168201915b50509c5050505050505050505050505060405180910390a1505050565b610a6061177d565b6000600160a060020a031660026000896040518082805190602001908083835b60208310610a9f5780518252601f199092019160209182019101610a80565b51815160209384036101000a6000190180199092169116179052604080519290940182900390912086528501959095529290920160002054600160a060020a0316939093149250829150610b789050575033600160a060020a031660026000896040518082805190602001908083835b60208310610b2e5780518252601f199092019160209182019101610b0f565b51815160209384036101000a6000190180199092169116179052604080519290940182900390912086528501959095529290920160002054600160a060020a031693909314925050505b1515610b8357600080fd5b6101006040519081016040528033600160a060020a03168152602001888152602001878152602001858152602001848152602001868152602001836009811115610bc957fe5b81526000805474010000000000000000000000000000000000000000900460ff16156020928301526040518a5193945084936002938c929182918401908083835b60208310610c295780518252601f199092019160209182019101610c0a565b51815160209384036101000a6000190180199092169116179052604080519290940182900390912086528581019690965250929092016000208451815473ffffffffffffffffffffffffffffffffffffffff1916600160a060020a039091161781558484015180519194610ca5945060018601935001906117d7565b5060408201518051610cc19160028401916020909101906117d7565b5060608201518051610cdd9160038401916020909101906117d7565b5060808201518051610cf99160048401916020909101906117d7565b5060a08201518051610d159160058401916020909101906117d7565b5060c082015160068201805460ff19166001836009811115610d3357fe5b021790555060e08201518160060160016101000a81548160ff0219169083151502179055509050507f49d29b9f52e994938dfbd63cefb18a6341a0e2248ed1a91295d44756e7765637338888888888886040518088600160a060020a0316600160a060020a031681526020018060200180602001806020018060200180602001876009811115610dbf57fe5b60ff16815260200186810386528c818151815260200191508051906020019080838360005b83811015610dfc578181015183820152602001610de4565b50505050905090810190601f168015610e295780820380516001836020036101000a031916815260200191505b5086810385528b5181528b516020918201918d019080838360005b83811015610e5c578181015183820152602001610e44565b50505050905090810190601f168015610e895780820380516001836020036101000a031916815260200191505b5086810384528a5181528a516020918201918c019080838360005b83811015610ebc578181015183820152602001610ea4565b50505050905090810190601f168015610ee95780820380516001836020036101000a031916815260200191505b5086810383528951815289516020918201918b019080838360005b83811015610f1c578181015183820152602001610f04565b50505050905090810190601f168015610f495780820380516001836020036101000a031916815260200191505b5086810382528851815288516020918201918a019080838360005b83811015610f7c578181015183820152602001610f64565b50505050905090810190601f168015610fa95780820380516001836020036101000a031916815260200191505b509c5050505050505050505050505060405180910390a150505050505050565b60005474010000000000000000000000000000000000000000900460ff1681565b600054600160a060020a0316331461100157600080fd5b60008054604051600160a060020a03909116917ff8df31144d9c2f0f6b59d69b8b98abd5459d07f2742c4df920b25aae33c6482091a26000805473ffffffffffffffffffffffffffffffffffffffff19169055565b60018054604080516020600284861615610100026000190190941693909304601f810184900484028201840190925281815292918301828280156110db5780601f106110b0576101008083540402835291602001916110db565b820191906000526020600020905b8154815290600101906020018083116110be57829003601f168201915b505050505081565b600054600160a060020a031633146110fa57600080fd5b600060026000836040518082805190602001908083835b602083106111305780518252601f199092019160209182019101611111565b6001836020036101000a03801982511681845116808217855250505050505090500191505060405180910390206000191660001916815260200190815260200160002060060160016101000a81548160ff021916908315150217905550806040518082805190602001908083835b602083106111bd5780518252601f19909201916020918201910161119e565b5181516020939093036101000a60001901801990911692169190911790526040519201829003822093507f834a2d47e948021d7136fb7275b3f1e1feae6333c0d683e8c13f901667defd8c92506000919050a250565b600054600160a060020a0316331461122a57600080fd5b6000805482151574010000000000000000000000000000000000000000810274ff0000000000000000000000000000000000000000199092169190911790915560408051918252517f9f90b16ecbeaa03697f7ad37bc569e43325c68bc6942130f1153018f17a7f35e9181900360200190a150565b600054600160a060020a031633146112b657600080fd5b80516112c99060019060208401906117d7565b507ffa604b9f72cfe31dc76d72c3ca4f78daeb444286f7b9e1db3eeda406629fabcd816040518080602001828103825283818151815260200191508051906020019080838360005b83811015611329578181015183820152602001611311565b50505050905090810190601f1680156113565780820380516001836020036101000a031916815260200191505b509250505060405180910390a150565b600054600160a060020a031681565b606080606080606060008060026000896040518082805190602001908083835b602083106113b45780518252601f199092019160209182019101611395565b518151600019602094850361010090810a8201928316921993909316919091179092526040805196909401869003909520885287820198909852958101600020600181810180548451601f600294831615909802909b01169190910494850188900488028901880190925283885297509491935050840190508282801561147c5780601f106114515761010080835404028352916020019161147c565b820191906000526020600020905b81548152906001019060200180831161145f57829003601f168201915b50505060028085018054604080516020601f6000196101006001871615020190941695909504928301859004850281018501909152818152959c50909350915083018282801561150d5780601f106114e25761010080835404028352916020019161150d565b820191906000526020600020905b8154815290600101906020018083116114f057829003601f168201915b5050505060058301805460408051602060026001851615610100026000190190941693909304601f8101849004840282018401909252818152949a5091925083018282801561159d5780601f106115725761010080835404028352916020019161159d565b820191906000526020600020905b81548152906001019060200180831161158057829003601f168201915b5050505060058301805460408051602060026001851615610100026000190190941693909304601f810184900484028201840190925281815294995091925083018282801561162d5780601f106116025761010080835404028352916020019161162d565b820191906000526020600020905b81548152906001019060200180831161161057829003601f168201915b5050505060048301805460408051602060026001851615610100026000190190941693909304601f81018490048402820184019092528181529498509192508301828280156116bd5780601f10611692576101008083540402835291602001916116bd565b820191906000526020600020905b8154815290600101906020018083116116a057829003601f168201915b505050506006929092015497999698509496939560ff9094169392505050565b600054600160a060020a031633146116f457600080fd5b6116fd81611700565b50565b600160a060020a038116151561171557600080fd5b60008054604051600160a060020a03808516939216917f8be0079c531659141344cd1fd0a4f28419497f9722a3daafe3b4186f6b6457e091a36000805473ffffffffffffffffffffffffffffffffffffffff1916600160a060020a0392909216919091179055565b610100604051908101604052806000600160a060020a031681526020016060815260200160608152602001606081526020016060815260200160608152602001600060098111156117ca57fe5b8152600060209091015290565b828054600181600116156101000203166002900490600052602060002090601f016020900481019282601f1061181857805160ff1916838001178555611845565b82800160010185558215611845579182015b8281111561184557825182559160200191906001019061182a565b50611851929150611855565b5090565b61186f91905b80821115611851576000815560010161185b565b905600a165627a7a72305820b18d75a57415703452d16ba388bafca6d439b56333962dff7fb77b668ea4f0c20029",
  "source": "pragma solidity ^0.4.21;\n\nimport \"./Ownable.sol\";\n\ncontract Octopeth is Ownable {\n\n  bool public preCensorship;\n  bytes public config;\n\n  struct dApp {\n    address owner;\n    string title;\n    string url;\n    string logo;\n    string desc;\n    string contact;\n    categories cat;\n    bool approved;\n  }\n\n  enum categories {OTHER, GAMING, ENTERTAINMENT, FINANCE, SOCIAL, EXCHANGE, GAMBLING, TOKENS, SHARING, GOVERNANCE}\n\n  event Publish(address owner, string title, string url, string contact, string logo, string desc, categories cat);\n  event Review(address owner, string title, string url, string contact, string logo, string desc, categories cat);\n  event Remove(string indexed title);\n  event PreCensor(bool value);\n  event Config(bytes value);\n\n  mapping (bytes32 => dApp) dApps;\n\n  function publish(string title, string url, string contact, string logo, string desc, categories cat) public {\n    require(dApps[keccak256(bytes(title))].owner == address(0) || dApps[keccak256(bytes(title))].owner == msg.sender);\n    dApp memory newdApp = dApp(msg.sender, title, url, logo, desc, contact, cat, !(preCensorship));\n    dApps[keccak256(bytes(title))] = newdApp;\n    emit Publish(msg.sender, title, url, contact, logo, desc, cat);\n  }\n\n  function review(string title, bool value) public onlyOwner {\n    dApp storage thisdApp = dApps[keccak256(bytes(title))];\n    thisdApp.approved = value;\n    emit Review(thisdApp.owner, thisdApp.title, thisdApp.url, thisdApp.contact, thisdApp.logo, thisdApp.desc, thisdApp.cat);\n  }\n\n  function remove(string title) public onlyOwner {\n    dApps[keccak256(bytes(title))].approved = false;\n    emit Remove(title);\n  }\n\n  function preCensor(bool value) public onlyOwner {\n    preCensorship = value;\n    emit PreCensor(value);\n  }\n\n  function updateConfig(bytes value) public onlyOwner {\n    config = value;\n    emit Config(value);\n  }\n\n  function getDApp(string apptitle) view public returns (string title, string url, string contact, string logo, string desc, categories cat) {\n    dApp storage app = dApps[keccak256(bytes(apptitle))];\n    title = app.title;\n    url = app.url;\n    contact = app.contact;\n    logo = app.contact;\n    desc = app.desc;\n    cat = app.cat;\n  }\n\n}\n",
  "sourcePath": "/home/nour/Lamarkaz/octopeth/contracts/contracts/Octopeth.sol",
  "compiler": {
    "name": "solc",
    "version": "0.4.24+commit.e67f0147.Emscripten.clang"
  },
  "schemaVersion": "2.0.1",
  "updatedAt": "2018-08-26T16:21:17.618Z"
}