{
  "contractName": "Octopeth",
  "abi": [
    {
      "constant": false,
      "inputs": [],
      "name": "renounceOwnership",
      "outputs": [],
      "payable": false,
      "stateMutability": "nonpayable",
      "type": "function"
    },
    {
      "constant": true,
      "inputs": [],
      "name": "owner",
      "outputs": [
        {
          "name": "",
          "type": "address"
        }
      ],
      "payable": false,
      "stateMutability": "view",
      "type": "function"
    },
    {
      "constant": false,
      "inputs": [
        {
          "name": "_newOwner",
          "type": "address"
        }
      ],
      "name": "transferOwnership",
      "outputs": [],
      "payable": false,
      "stateMutability": "nonpayable",
      "type": "function"
    },
    {
      "anonymous": false,
      "inputs": [
        {
          "indexed": false,
          "name": "owner",
          "type": "address"
        },
        {
          "indexed": false,
          "name": "title",
          "type": "string"
        },
        {
          "indexed": false,
          "name": "url",
          "type": "string"
        },
        {
          "indexed": false,
          "name": "contact",
          "type": "string"
        },
        {
          "indexed": false,
          "name": "logo",
          "type": "string"
        },
        {
          "indexed": false,
          "name": "desc",
          "type": "string"
        },
        {
          "indexed": false,
          "name": "hash",
          "type": "bytes32"
        },
        {
          "indexed": false,
          "name": "cat",
          "type": "uint8"
        }
      ],
      "name": "Publish",
      "type": "event"
    },
    {
      "anonymous": false,
      "inputs": [
        {
          "indexed": false,
          "name": "owner",
          "type": "address"
        },
        {
          "indexed": false,
          "name": "title",
          "type": "string"
        },
        {
          "indexed": false,
          "name": "url",
          "type": "string"
        },
        {
          "indexed": false,
          "name": "contact",
          "type": "string"
        },
        {
          "indexed": false,
          "name": "logo",
          "type": "string"
        },
        {
          "indexed": false,
          "name": "desc",
          "type": "string"
        },
        {
          "indexed": false,
          "name": "hash",
          "type": "bytes32"
        },
        {
          "indexed": false,
          "name": "cat",
          "type": "uint8"
        }
      ],
      "name": "Approve",
      "type": "event"
    },
    {
      "anonymous": false,
      "inputs": [
        {
          "indexed": true,
          "name": "title",
          "type": "string"
        }
      ],
      "name": "Remove",
      "type": "event"
    },
    {
      "anonymous": false,
      "inputs": [
        {
          "indexed": true,
          "name": "previousOwner",
          "type": "address"
        }
      ],
      "name": "OwnershipRenounced",
      "type": "event"
    },
    {
      "anonymous": false,
      "inputs": [
        {
          "indexed": true,
          "name": "previousOwner",
          "type": "address"
        },
        {
          "indexed": true,
          "name": "newOwner",
          "type": "address"
        }
      ],
      "name": "OwnershipTransferred",
      "type": "event"
    },
    {
      "constant": false,
      "inputs": [
        {
          "name": "title",
          "type": "string"
        },
        {
          "name": "url",
          "type": "string"
        },
        {
          "name": "contact",
          "type": "string"
        },
        {
          "name": "logo",
          "type": "string"
        },
        {
          "name": "desc",
          "type": "string"
        },
        {
          "name": "hash",
          "type": "bytes32"
        },
        {
          "name": "cat",
          "type": "uint8"
        }
      ],
      "name": "publish",
      "outputs": [],
      "payable": false,
      "stateMutability": "nonpayable",
      "type": "function"
    },
    {
      "constant": false,
      "inputs": [
        {
          "name": "title",
          "type": "string"
        }
      ],
      "name": "approve",
      "outputs": [],
      "payable": false,
      "stateMutability": "nonpayable",
      "type": "function"
    },
    {
      "constant": false,
      "inputs": [
        {
          "name": "title",
          "type": "string"
        }
      ],
      "name": "remove",
      "outputs": [],
      "payable": false,
      "stateMutability": "nonpayable",
      "type": "function"
    }
  ],
  "bytecode": "0x6080604052336000806101000a81548173ffffffffffffffffffffffffffffffffffffffff021916908373ffffffffffffffffffffffffffffffffffffffff160217905550611408806100536000396000f300608060405260043610610078576000357c0100000000000000000000000000000000000000000000000000000000900463ffffffff168063715018a61461007d57806380599e4b146100945780638da5cb5b146100fd57806395b9964214610154578063b67b7163146102f0578063f2fde38b14610359575b600080fd5b34801561008957600080fd5b5061009261039c565b005b3480156100a057600080fd5b506100fb600480360381019080803590602001908201803590602001908080601f016020809104026020016040519081016040528093929190818152602001838380828437820191505050505050919291929050505061049e565b005b34801561010957600080fd5b50610112610612565b604051808273ffffffffffffffffffffffffffffffffffffffff1673ffffffffffffffffffffffffffffffffffffffff16815260200191505060405180910390f35b34801561016057600080fd5b506102ee600480360381019080803590602001908201803590602001908080601f0160208091040260200160405190810160405280939291908181526020018383808284378201915050505050509192919290803590602001908201803590602001908080601f0160208091040260200160405190810160405280939291908181526020018383808284378201915050505050509192919290803590602001908201803590602001908080601f0160208091040260200160405190810160405280939291908181526020018383808284378201915050505050509192919290803590602001908201803590602001908080601f0160208091040260200160405190810160405280939291908181526020018383808284378201915050505050509192919290803590602001908201803590602001908080601f01602080910402602001604051908101604052809392919081815260200183838082843782019150505050505091929192908035600019169060200190929190803560ff169060200190929190505050610637565b005b3480156102fc57600080fd5b50610357600480360381019080803590602001908201803590602001908080601f0160208091040260200160405190810160405280939291908181526020018383808284378201915050505050509192919290505050610c8c565b005b34801561036557600080fd5b5061039a600480360381019080803573ffffffffffffffffffffffffffffffffffffffff169060200190929190505050611163565b005b6000809054906101000a900473ffffffffffffffffffffffffffffffffffffffff1673ffffffffffffffffffffffffffffffffffffffff163373ffffffffffffffffffffffffffffffffffffffff161415156103f757600080fd5b6000809054906101000a900473ffffffffffffffffffffffffffffffffffffffff1673ffffffffffffffffffffffffffffffffffffffff167ff8df31144d9c2f0f6b59d69b8b98abd5459d07f2742c4df920b25aae33c6482060405160405180910390a260008060006101000a81548173ffffffffffffffffffffffffffffffffffffffff021916908373ffffffffffffffffffffffffffffffffffffffff160217905550565b6000809054906101000a900473ffffffffffffffffffffffffffffffffffffffff1673ffffffffffffffffffffffffffffffffffffffff163373ffffffffffffffffffffffffffffffffffffffff161415156104f957600080fd5b60006001826040518082805190602001908083835b602083101515610533578051825260208201915060208101905060208303925061050e565b6001836020036101000a038019825116818451168082178552505050505050905001915050908152602001604051809103902060070160016101000a81548160ff021916908315150217905550806040518082805190602001908083835b6020831015156105b65780518252602082019150602081019050602083039250610591565b6001836020036101000a03801982511681845116808217855250505050505090500191505060405180910390207f834a2d47e948021d7136fb7275b3f1e1feae6333c0d683e8c13f901667defd8c60405160405180910390a250565b6000809054906101000a900473ffffffffffffffffffffffffffffffffffffffff1681565b61063f6112c4565b600073ffffffffffffffffffffffffffffffffffffffff166001896040518082805190602001908083835b60208310151561068f578051825260208201915060208101905060208303925061066a565b6001836020036101000a038019825116818451168082178552505050505050905001915050908152602001604051809103902060000160009054906101000a900473ffffffffffffffffffffffffffffffffffffffff1673ffffffffffffffffffffffffffffffffffffffff1614806107c157503373ffffffffffffffffffffffffffffffffffffffff166001896040518082805190602001908083835b602083101515610752578051825260208201915060208101905060208303925061072d565b6001836020036101000a038019825116818451168082178552505050505050905001915050908152602001604051809103902060000160009054906101000a900473ffffffffffffffffffffffffffffffffffffffff1673ffffffffffffffffffffffffffffffffffffffff16145b15156107cc57600080fd5b610120604051908101604052803373ffffffffffffffffffffffffffffffffffffffff1681526020018981526020018881526020018681526020018581526020018781526020018460001916815260200183600981111561082957fe5b8152602001600015158152509050806001896040518082805190602001908083835b602083101515610870578051825260208201915060208101905060208303925061084b565b6001836020036101000a038019825116818451168082178552505050505050905001915050908152602001604051809103902060008201518160000160006101000a81548173ffffffffffffffffffffffffffffffffffffffff021916908373ffffffffffffffffffffffffffffffffffffffff1602179055506020820151816001019080519060200190610906929190611337565b506040820151816002019080519060200190610923929190611337565b506060820151816003019080519060200190610940929190611337565b50608082015181600401908051906020019061095d929190611337565b5060a082015181600501908051906020019061097a929190611337565b5060c0820151816006019060001916905560e08201518160070160006101000a81548160ff021916908360098111156109af57fe5b02179055506101008201518160070160016101000a81548160ff0219169083151502179055509050507fded46f3ead3f0175fe7ac4a22b24eb9ee431c80b707289406016b30961a516323389898989898989604051808973ffffffffffffffffffffffffffffffffffffffff1673ffffffffffffffffffffffffffffffffffffffff16815260200180602001806020018060200180602001806020018860001916600019168152602001876009811115610a6557fe5b60ff16815260200186810386528d818151815260200191508051906020019080838360005b83811015610aa5578082015181840152602081019050610a8a565b50505050905090810190601f168015610ad25780820380516001836020036101000a031916815260200191505b5086810385528c818151815260200191508051906020019080838360005b83811015610b0b578082015181840152602081019050610af0565b50505050905090810190601f168015610b385780820380516001836020036101000a031916815260200191505b5086810384528b818151815260200191508051906020019080838360005b83811015610b71578082015181840152602081019050610b56565b50505050905090810190601f168015610b9e5780820380516001836020036101000a031916815260200191505b5086810383528a818151815260200191508051906020019080838360005b83811015610bd7578082015181840152602081019050610bbc565b50505050905090810190601f168015610c045780820380516001836020036101000a031916815260200191505b50868103825289818151815260200191508051906020019080838360005b83811015610c3d578082015181840152602081019050610c22565b50505050905090810190601f168015610c6a5780820380516001836020036101000a031916815260200191505b509d505050505050505050505050505060405180910390a15050505050505050565b60008060009054906101000a900473ffffffffffffffffffffffffffffffffffffffff1673ffffffffffffffffffffffffffffffffffffffff163373ffffffffffffffffffffffffffffffffffffffff16141515610ce957600080fd5b6001826040518082805190602001908083835b602083101515610d215780518252602082019150602081019050602083039250610cfc565b6001836020036101000a03801982511681845116808217855250505050505090500191505090815260200160405180910390209050600180836040518082805190602001908083835b602083101515610d8f5780518252602082019150602081019050602083039250610d6a565b6001836020036101000a038019825116818451168082178552505050505050905001915050908152602001604051809103902060070160016101000a81548160ff0219169083151502179055507f336d472a9dac65f291a545c59169a7aaba65b60263cd85a530cb47330fc92a248160000160009054906101000a900473ffffffffffffffffffffffffffffffffffffffff16826001018360020184600501856003018660040187600601548860070160009054906101000a900460ff16604051808973ffffffffffffffffffffffffffffffffffffffff1673ffffffffffffffffffffffffffffffffffffffff16815260200180602001806020018060200180602001806020018860001916600019168152602001876009811115610eb157fe5b60ff16815260200186810386528d818154600181600116156101000203166002900481526020019150805460018160011615610100020316600290048015610f3a5780601f10610f0f57610100808354040283529160200191610f3a565b820191906000526020600020905b815481529060010190602001808311610f1d57829003601f168201915b505086810385528c818154600181600116156101000203166002900481526020019150805460018160011615610100020316600290048015610fbd5780601f10610f9257610100808354040283529160200191610fbd565b820191906000526020600020905b815481529060010190602001808311610fa057829003601f168201915b505086810384528b8181546001816001161561010002031660029004815260200191508054600181600116156101000203166002900480156110405780601f1061101557610100808354040283529160200191611040565b820191906000526020600020905b81548152906001019060200180831161102357829003601f168201915b505086810383528a8181546001816001161561010002031660029004815260200191508054600181600116156101000203166002900480156110c35780601f10611098576101008083540402835291602001916110c3565b820191906000526020600020905b8154815290600101906020018083116110a657829003601f168201915b50508681038252898181546001816001161561010002031660029004815260200191508054600181600116156101000203166002900480156111465780601f1061111b57610100808354040283529160200191611146565b820191906000526020600020905b81548152906001019060200180831161112957829003601f168201915b50509d505050505050505050505050505060405180910390a15050565b6000809054906101000a900473ffffffffffffffffffffffffffffffffffffffff1673ffffffffffffffffffffffffffffffffffffffff163373ffffffffffffffffffffffffffffffffffffffff161415156111be57600080fd5b6111c7816111ca565b50565b600073ffffffffffffffffffffffffffffffffffffffff168173ffffffffffffffffffffffffffffffffffffffff161415151561120657600080fd5b8073ffffffffffffffffffffffffffffffffffffffff166000809054906101000a900473ffffffffffffffffffffffffffffffffffffffff1673ffffffffffffffffffffffffffffffffffffffff167f8be0079c531659141344cd1fd0a4f28419497f9722a3daafe3b4186f6b6457e060405160405180910390a3806000806101000a81548173ffffffffffffffffffffffffffffffffffffffff021916908373ffffffffffffffffffffffffffffffffffffffff16021790555050565b61012060405190810160405280600073ffffffffffffffffffffffffffffffffffffffff1681526020016060815260200160608152602001606081526020016060815260200160608152602001600080191681526020016000600981111561132857fe5b81526020016000151581525090565b828054600181600116156101000203166002900490600052602060002090601f016020900481019282601f1061137857805160ff19168380011785556113a6565b828001600101855582156113a6579182015b828111156113a557825182559160200191906001019061138a565b5b5090506113b391906113b7565b5090565b6113d991905b808211156113d55760008160009055506001016113bd565b5090565b905600a165627a7a72305820ee9c468863451cfd8f26b4b79b75b67421f5b40b6c9497caeb4ee439d675de9c0029",
  "source": "pragma solidity ^0.4.21;\n\nimport \"./Ownable.sol\";\n\ncontract Octopeth is Ownable {\n\n  struct dApp {\n    address owner;\n    string title;\n    string url;\n    string logo;\n    string desc;\n    string contact;\n    bytes32 hash;\n    categories cat;\n    bool approved;\n  }\n\n  enum categories {OTHER, GAMING, ENTERTAINMENT, FINANCE, SOCIAL, EXCHANGE, GAMBLING, TOKENS, SHARING, GOVERNANCE}\n\n  event Publish(address owner, string title, string url, string contact, string logo, string desc, bytes32 hash, categories cat);\n  event Approve(address owner, string title, string url, string contact, string logo, string desc, bytes32 hash, categories cat);\n  event Remove(string indexed title);\n\n  mapping (string => dApp) dApps;\n\n  function publish(string title, string url, string contact, string logo, string desc, bytes32 hash, categories cat) public {\n    require(dApps[title].owner == address(0) || dApps[title].owner == msg.sender);\n    dApp memory newdApp = dApp(msg.sender, title, url, logo, desc, contact, hash, cat, false);\n    dApps[title] = newdApp;\n    emit Publish(msg.sender, title, url, contact, logo, desc, hash, cat);\n  }\n\n  function approve(string title) public onlyOwner {\n    dApp storage thisdApp = dApps[title];\n    dApps[title].approved = true;\n    emit Approve(thisdApp.owner, thisdApp.title, thisdApp.url, thisdApp.contact, thisdApp.logo, thisdApp.desc, thisdApp.hash, thisdApp.cat);\n  }\n\n  function remove(string title) public onlyOwner {\n    dApps[title].approved = false;\n    emit Remove(title);\n  }\n}\n",
  "sourcePath": "/Users/elrakabawi/Desktop/gits/octopeth/contracts/contracts/Octopeth.sol",
  "compiler": {
    "name": "solc",
    "version": "0.4.24+commit.e67f0147.Emscripten.clang"
  },
  "schemaVersion": "2.0.1",
  "updatedAt": "2018-07-23T00:08:39.928Z"
}