{
  "contractName": "Octopeth",
  "abi": [
    {
      "constant": false,
      "inputs": [
        {
          "name": "title",
          "type": "string"
        },
        {
          "name": "url",
          "type": "string"
        },
        {
          "name": "logo",
          "type": "string"
        }
      ],
      "name": "publish",
      "outputs": [],
      "payable": false,
      "stateMutability": "nonpayable",
      "type": "function"
    }
  ],
  "bytecode": "0x6060604052341561000f57600080fd5b6107db8061001e6000396000f300606060405260043610610041576000357c0100000000000000000000000000000000000000000000000000000000900463ffffffff1680636d25e37714610046575b600080fd5b341561005157600080fd5b610127600480803590602001908201803590602001908080601f0160208091040260200160405190810160405280939291908181526020018383808284378201915050505050509190803590602001908201803590602001908080601f0160208091040260200160405190810160405280939291908181526020018383808284378201915050505050509190803590602001908201803590602001908080601f01602080910402602001604051908101604052809392919081815260200183838082843782019150505050505091905050610129565b005b6101316106a5565b600073ffffffffffffffffffffffffffffffffffffffff166000856040518082805190602001908083835b602083101515610181578051825260208201915060208101905060208303925061015c565b6001836020036101000a038019825116818451168082178552505050505050905001915050908152602001604051809103902060000160009054906101000a900473ffffffffffffffffffffffffffffffffffffffff1673ffffffffffffffffffffffffffffffffffffffff1614806102b357503373ffffffffffffffffffffffffffffffffffffffff166000856040518082805190602001908083835b602083101515610244578051825260208201915060208101905060208303925061021f565b6001836020036101000a038019825116818451168082178552505050505050905001915050908152602001604051809103902060000160009054906101000a900473ffffffffffffffffffffffffffffffffffffffff1673ffffffffffffffffffffffffffffffffffffffff16145b15156102be57600080fd5b600073ffffffffffffffffffffffffffffffffffffffff166001846040518082805190602001908083835b60208310151561030e57805182526020820191506020810190506020830392506102e9565b6001836020036101000a038019825116818451168082178552505050505050905001915050908152602001604051809103902060000160009054906101000a900473ffffffffffffffffffffffffffffffffffffffff1673ffffffffffffffffffffffffffffffffffffffff16148061044057503373ffffffffffffffffffffffffffffffffffffffff166001846040518082805190602001908083835b6020831015156103d157805182526020820191506020810190506020830392506103ac565b6001836020036101000a038019825116818451168082178552505050505050905001915050908152602001604051809103902060000160009054906101000a900473ffffffffffffffffffffffffffffffffffffffff1673ffffffffffffffffffffffffffffffffffffffff16145b151561044b57600080fd5b6080604051908101604052803373ffffffffffffffffffffffffffffffffffffffff168152602001858152602001848152602001838152509050806000856040518082805190602001908083835b6020831015156104be5780518252602082019150602081019050602083039250610499565b6001836020036101000a038019825116818451168082178552505050505050905001915050908152602001604051809103902060008201518160000160006101000a81548173ffffffffffffffffffffffffffffffffffffffff021916908373ffffffffffffffffffffffffffffffffffffffff16021790555060208201518160010190805190602001906105549291906106f6565b5060408201518160020190805190602001906105719291906106f6565b50606082015181600301908051906020019061058e9291906106f6565b50905050806001846040518082805190602001908083835b6020831015156105cb57805182526020820191506020810190506020830392506105a6565b6001836020036101000a038019825116818451168082178552505050505050905001915050908152602001604051809103902060008201518160000160006101000a81548173ffffffffffffffffffffffffffffffffffffffff021916908373ffffffffffffffffffffffffffffffffffffffff16021790555060208201518160010190805190602001906106619291906106f6565b50604082015181600201908051906020019061067e9291906106f6565b50606082015181600301908051906020019061069b9291906106f6565b5090505050505050565b608060405190810160405280600073ffffffffffffffffffffffffffffffffffffffff1681526020016106d6610776565b81526020016106e3610776565b81526020016106f0610776565b81525090565b828054600181600116156101000203166002900490600052602060002090601f016020900481019282601f1061073757805160ff1916838001178555610765565b82800160010185558215610765579182015b82811115610764578251825591602001919060010190610749565b5b509050610772919061078a565b5090565b602060405190810160405280600081525090565b6107ac91905b808211156107a8576000816000905550600101610790565b5090565b905600a165627a7a723058205f40e057ad35cd78353e816fa77d9b2110b1992e11a0ec866ab8548c940bb1ba0029",
  "source": "pragma solidity ^0.4.21;\n\ncontract Octopeth {\n\n  struct dApp {\n    address owner;\n    string title;\n    string url;\n    string logo;\n  }\n\n  mapping (string => dApp) dApps;\n  mapping (string => dApp) urls;\n\n  function publish(string title, string url, string logo) public {\n    require(dApps[title].owner == address(0) || dApps[title].owner == msg.sender);\n    require(urls[url].owner == address(0) || (urls[url].owner == msg.sender));\n    dApp memory newdApp = dApp(msg.sender, title, url, logo);\n    dApps[title] = newdApp;\n    urls[url] = newdApp;\n  }\n}\n",
  "sourcePath": "/home/nour/Documents/Lamarkaz/octopeth/contracts/contracts/Octopeth.sol",
  "compiler": {
    "name": "solc",
    "version": "0.4.21+commit.dfe3193c.Emscripten.clang"
  },
  "schemaVersion": "2.0.0",
  "updatedAt": "2018-06-08T09:55:16.362Z"
}